:020000040800F2
:10000000381C002045010008B72C0008612A0008B0
:10001000B52C0008E1150008712F00080000000051
:10002000000000000000000000000000690100085E
:10003000FD15000800000000D5010008E5010008DA
:100040005F0100085F0100085F0100085F01000810
:100050005F0100085F0100085F0100085F01000800
:100060005F0100085F0100085F0100085F010008F0
:100070005F0100085F010008E5150008F1150008A0
:100080005F0100085F0100085F0100085F010008D0
:100090005F0100085F0100085F0100085F010008C0
:1000A0005F0100085F0100085F0100085F010008B0
:1000B0001D2D00085F0100085F0100085F010008B6
:1000C0005F0100085F0100085F0100085F01000890
:1000D0005F010008652F00085F0100085F0100084C
:1000E0005F0100085F0100085F0100085F01000870
:1000F0005F0100085F0100085F0100085F01000860
:100100005F0100085F0100085F0100085F0100084F
:100110005F0100085F0100085F0100085F0100083F
:100120005F0100085F0100085F0100085F0100082F
:10013000DFF80CD000F086F800480047DD2F0008FB
:10014000381C00200648804706480047FEE7FEE7C7
:10015000FEE7FEE7FEE7FEE7FEE7FEE7FEE7FEE777
:10016000192D0008310100081EF0040F0CBFEFF339
:100170000880EFF30980816911F8021CD9B901B533
:1001800090E80F10E047BDE800508CE80300194BE1
:1001900093E80600914208BF704719B12CE9F00FAF
:1001A000C1F838C01A60906BB0E8F00F80F309888E
:1001B0006FF0020E7047104A13689942FAD801B5E1
:1001C00052F821C00FC8E047BDE80050CCF800004D
:1001D0007047000001B500F0ABFBBDE80140EFF354
:1001E000098CD4E701B500F0E3FDBDE80140EFF371
:1001F000098CCCE774150020D430000840EA0103D4
:100200009B0703D009E008C9121F08C0042AFAD2CC
:1002100003E011F8013B00F8013B521EF9D2704790
:10022000D2B201E000F8012B491EFBD27047002238
:10023000F6E710B513460A4604461946FFF7F0FFE5
:10024000204610BD064C074D06E0E06840F0010373
:1002500094E8070098471034AC42F6D3FFF76CFFE0
:1002600090310008B031000830B58C1810F8012B1F
:1002700012F00F0301D110F8013B120906D110F85A
:10028000012B03E010F8015B01F8015B5B1EF9D163
:1002900001E001F8013B521EFBD1A142E6D3002050
:1002A00030BD10B500F1280151E8002F12B9BFF39D
:1002B0002F8F04E0531E41E8003404B1F4E772B11B
:1002C0002C300121006850B1821CD2E84F3FC2E8B7
:1002D000441F04B1F9E71A0602D00830F2E7002003
:1002E00010BD70B5024652F8305F4DB1CC78002396
:1002F0005DB12E46ED78A5420DD275683346F7E71D
:100300000023C1E90133C1620DE00024C1E90143CA
:1003100000F12C0403E0C1E9016306F10804216047
:10032000002B18BF1A1D1160283050E8001F4A1C0E
:1003300040E8002303B1F8E770BDD1E90123002AAA
:100340000EBFC36293608B68191D002B08BF00F1BC
:1003500030010A607047000001480068704700BF24
:1003600010E000E007480178012905D106494FF067
:1003700080620A60002101700448016841F00101B7
:10038000016070473418002004ED00E010E000E048
:100390004FF0FF307047000040B10B490968B1FBD6
:1003A000F0F0411E0020B0EB116F02D04FF0FF3093
:1003B0007047064AFF231370054A062313605160F5
:1003C00004490870906070475015002023ED00E04C
:1003D00010E000E03418002010B5930712D400F1AB
:1003E0002803D0071ED153E8000F084203D1BFF302
:1003F0002F8F002005E020EA010243E8002404B129
:10040000F1E710BD806A00EA01038B42014618BF84
:10041000002112F0010208BF014653EA020018BF92
:10042000084610BD53E8000F00EA01028A4203D0DB
:10043000BFF32F8F002005E020EA010243E80024EB
:1004400004B1EFE710BD0000B0B5104A00234432FC
:1004500015462C683CB12569A94209D3491B04F112
:100460000C052346F5E70024C0E90234016106E0EB
:10047000C0E902340161A0602569691A2161002B7D
:1004800018BF03F10C021060B0BD00BF6015002062
:10049000EFF3058129B9EFF3108111B9EFF3118161
:1004A00011B16FF005007047DFF804C000DF70473E
:1004B000E10E0008EFF3058048B9EFF3108030B982
:1004C000EFF3118018B9EFF31480C00702D104488C
:1004D000007A7047DFF804C000DF7047F50E0008AF
:1004E0006015002080B500F0A9F8EFF3058028B969
:1004F000EFF3108010B9EFF3118010B16FF0050029
:1005000080BDDFF808C000DF80BD00BF010F00081C
:10051000EFF3058028B9EFF3108010B9EFF31180E5
:1005200010B16FF005007047DFF804C000DF7047BE
:1005300051100008F8B514460E460546EFF3058045
:1005400028B9EFF3108010B9EFF31180F0B16FF01C
:1005500003000DB303BBFEB12978FA291CD128464C
:10056000FFF79FFE78B16A6A074600F10C0130463A
:10057000FFF744FE0CB1F87820703846FD6000F0BB
:100580001DFA0020F8BD6FF00200F8BD2846DFF824
:100590000CC03146224600DFF8BD00BFD91000086C
:1005A000EFF305832BB9EFF3108313B9EFF3118346
:1005B0000BB100207047DFF808C000DF704700BFB4
:1005C000B91100082DE9F04190460D460646EFF3BB
:1005D000058028B9EFF3108010B9EFF3118018B33C
:1005E0006FF00307EEB1E3B9DDB13078FA2818D126
:1005F00006F10C0000F09CF888B1726A04460C30D9
:100600002946FFF7FBFD0027F920C4E9015684F8CD
:100610000380A7702070204600F0D0F901E06FF051
:1006200002073846BDE8F0813046DFF80CC02946A5
:10063000424600DFBDE8F081E91200087047F0B5DE
:10064000002390B389B3032A2FD8034653F8084FE9
:100650000F3121F007012546E61A5C6824F00307F4
:10066000F61B8E4205D22C682B46002CF3D10023BA
:100670001BE0D0E900650D444560304450F8046C3F
:10068000AE4202D2083845605C6854B1186824F064
:100690000304E05041EA0200E118486019600B468B
:1006A00002E041EA0200586008331846F0BDB0B5D8
:1006B0000022E8B1E1B100F10804A1F10802002331
:1006C000944206D0254624682B46002CF8D10022FF
:1006D0000EE051F8045C446825F00305641B446097
:1006E00013B11068186002E0002041F8040C0122E8
:1006F0001046B0BD08B1420702D000221046704734
:1007000000221829FAD311F00703F7D110B50A18FF
:10071000A2F108038360002342F8083C8268102499
:1007200054600122C0E90014C360BDE81040E5E751
:1007300010B5002817D0014600F1140252E8000F4E
:1007400010B9BFF32F8F04E0036842E8003404B10E
:10075000F4E740B1043151E8002F531C41E8003464
:1007600004B1F8E710BD002010BDB0B500281ED0C0
:10077000C2688A421BD802698A4218D900F1140261
:1007800013680B60BFF35F8F52E8003F0C689C4218
:10079000F6D142E8001505B1F2E7043050E8001F39
:1007A0004A1E40E8002303B1F8E70020B0BD6FF017
:1007B0000300B0BDB0B504460020ACB1A1B19AB100
:1007C00093B10020C4E9001004F1080002FB0135D8
:1007D0002CC0481E636120B19918196001380B467E
:1007E000F9E7002018600120B0BDF8B50446807814
:1007F00068B3E56821462846FFF79FFD002005F114
:100800000C06207030462146FFF7AFFFA868E8B11C
:100810003046FFF78DFFC8B10446284600F0FAF9CC
:10082000002100220646002700F0B0FA304600F012
:1008300051FA81686A6A064604F10C00FFF7DEFC93
:10084000F920A7702070F068E07025E0F8BDA56879
:10085000A86808B3407883281ED1284600F0DAF94A
:10086000002100220646002700F090FA304600F0F2
:1008700031FA064680686A6A04F10C01FFF7BEFC93
:10088000F06808B1E1780170277005F10C0021468D
:10089000BDE8F840FFF769BF28462146BDE8F840AB
:1008A000FFF71FBD2DE9F041044600274FF0010876
:1008B000D4B12546E87864690007F9D52F76A86891
:1008C0000028F5D0284600F0A5F9002100220646B0
:1008D00000F05CFAC5E90367F06A686100B1056180
:1008E00085F81880F562E3E7BDE8F081B0B5C2781D
:1008F000920715D5C068C36A90F821209C688C4285
:1009000008BF8C682CB194F9204055B2AC42C8BFE6
:10091000E2B25B69002BF1D190F82010914200D136
:10092000B0BD80F82020BDE8B04000F0A2B90000C2
:1009300070B5214C04F1560504F15A06B4F8540080
:10094000D5E85F1F11B9BFF32F8F04E04A1EC5E839
:10095000532F03B1F4E7090429D0D6E85F1F4A1CDE
:10096000904200D80022C6E8532F03B1F5E788B2C1
:10097000E16D51F82000D0B10178F1390829DDD8B6
:10098000DFE801F006050905050C0F051200D5E7A3
:10099000216E8847D2E7616E8847CFE7A16E88470E
:1009A000CCE7E16E8847C9E7216F8847C6E700209A
:1009B000BDE8704000F0D6B86015002070B5014663
:1009C000194800F15603B0F85420D3E85F4FA24213
:1009D00002D8BFF32F8F04E0651CC3E8565F06B151
:1009E000F3E7A3B2934214D200F15803D3E85F4F68
:1009F000651CAA4200D80025C3E8565F06B1F5E79A
:100A0000C36DA2B243F82210417A39B1012181723B
:100A100070BD0220BDE8704002F0F7BA03484FF005
:100A20008051016070BD00BF6015002004ED00E042
:100A300010B5012141700B4990F920301C310A4654
:100A4000896841B191F920409C42F8DCC0E902126A
:100A500090600C3104E00021C0E9021202F10801AB
:100A6000086010BD60150020B0B54A1C0DD01A4AB0
:100A700000242C3215462B68DBB1DD69A9421AD35C
:100A8000491B03F110051C46F5E7134900233031DB
:100A90000C461A46236803F11004002BF9D14FF0DD
:100AA000FF33C3610023C0E904329AB102F110019F
:100AB00010E0002500E00125002CC0E90434C161EC
:100AC00018BF04F1100210602DB1DA69511AD96112
:100AD00003F114010860B0BD60150020C26901690E
:100AE000531C0AD021B143694B61CB691A44CA61D6
:100AF00042693AB90748C162704709B142694A611F
:100B000042691AB1002343611161704701480163D2
:100B1000704700BF6015002070B5114DEC6A1CB124
:100B2000E0690138E06100D070BD042660781338B8
:100B3000B6EB301F05D1204600F095F82146FFF7AF
:100B4000D5FE204600F085F8204600F0B9F824696B
:100B500024B1E0690028E9D000206061EC6270BD3A
:100B600060150020B0B5054613484469017A65B1A7
:100B7000022905D194F9200095F92010814211DC59
:100B80002846BDE8B04000F09BB8022912D1456A62
:100B900085B194F9200095F9201081420ADD28469C
:100BA00000F057F82046FFF743FF2846BDE8B04065
:100BB00000F0C8B8B0BD00BF6015002010B50446F5
:100BC00000202080A07881070DD5C00605D41048EC
:100BD000216B406FFFF76BFD05E00D48216BD0F8EE
:100BE0008400FFF7C2FDA078C00708BF10BD084908
:100BF000D1F8880020B12146BDE81040FFF7B5BD0F
:100C0000D1F880002146BDE81040FFF750BD00BF7D
:100C1000601500200146806882688A6002B1D16058
:100C20000021C160704710B591F9203002468068FC
:100C300040B190F920409C42F8DAC1E9020291608B
:100C40000C3004E00020C1E9020202F1080001605A
:100C500010BDC16831B182688A60826802B1D1601A
:100C60000021C16070470178F12918BF7047C06842
:100C7000F9E7B0B50446054625B12878F12802D138
:100C8000ED68F9E7B0BD2046FFF7E3FF28462146AF
:100C9000BDE8B040FFF7C7BF10B504464078332821
:100CA0000DD194F82320616A2046FFF795FB30B1FF
:100CB000014620460022BDE8104000F067B810BD94
:100CC00001460120487002481C30FFF7ACBF00BF4E
:100CD00060150020806B2030704700000748416994
:100CE00039B1086B8A6B824204D90068044A904289
:100CF00000D17047012002F088B900BF60150020C4
:100D0000A52E5AE270B50B4C0B48A26D666E002101
:100D100000F07EFB094DA8624EB1E26D084800214B
:100D200000F076FBA864002818BF012070BD0120E8
:100D300070BD00BFE43000080D30000860150020D1
:100D4000210E00080249886102214170FFF7C6BFE9
:100D50006015002010B50C4C0246237A0020022BAF
:100D600011D1636A7BB160694270FFF77DFE606AF2
:100D70008168616211B104F11C02CA600021C16086
:100D8000FFF7E0FF012010BD60150020B0B504465C
:100D9000806B154601622046FFF7A0FE20461DB17C
:100DA000BDE8B040FFF7DEBEBDE8B040FFF788BF4A
:100DB000B0B5FFF7D1FA194DE968286D0131E96046
:100DC00000B18047FFF7A8FE0020FFF7CBFE296C9B
:100DD00011B3AA69A86B90421CBFC5E90E21B0BD32
:100DE000E96B11B10139E96316D1297A022913D1CE
:100DF0006C6A8CB190F8200094F8201081420BD1DD
:100E00002046FFF726FFA86BFFF75AFF2046FFF7A3
:100E100099FF286CC5E90E40B0BD00BF60150020E9
:100E200082B00B480821D0E91820FFF7B9FB094D23
:100E300009496C46C5E91301214600224FF0FF33F2
:100E4000FFF778FB10B9DDE900108847E86CF3E79D
:100E5000E4300008601500205D0E000870B5134DE9
:100E60006C6C14B32069012601382061ECB1206953
:100E7000D8B9E06808B1A16881606864E86C04F1E1
:100E8000180100220023FFF79DFB18B10320214623
:100E900002F0BBF8E078012804D161692046FFF731
:100EA000D3FA00E066706C6CE0E770BD601500205E
:100EB000DFF804C000DFFEE7A9130008EFF30583A5
:100EC0002BB9EFF3108313B9EFF311830BB10020AB
:100ED0007047DFF808C000DF704700BF111400083A
:100EE00030B180B501461320FFF734FFBDE88040E4
:100EF000002070470148007A704700BF601500204D
:100F00002DE9F8434F4F387A30B1012800F0968030
:100F10004FF0FF30BDE8F88307F108009C21FFF790
:100F200086F9DFF82481B8F81000D8E90B41A7F85A
:100F30005400D8E90202FA6538642046FFF7DAFB6C
:100F400008B1C7F88040D8E90541DFF80091D8E939
:100F500007562046C847D7F88010002818BF2146FA
:100F6000796728463146C847D7F88010002818BF4F
:100F70002946B967D8E909412046C847D7F8801003
:100F8000002818BF2146D8F83440F9673CB12168E1
:100F9000D4E902232046FFF70DFCC7F88440D8F8B7
:100FA00038403CB12168D4E902232046FFF702FC17
:100FB000C7F88840D8F83C403CB12168D4E9022306
:100FC0002046FFF7F7FBC7F88C40D8F840403CB10B
:100FD0002168D4E902232046FFF7ECFBC7F89040D4
:100FE000D8F844403CB12168D4E902232046FFF7F9
:100FF000E1FBC7F89440D8F848403CB12168D4E9F7
:1010000002232046FFF7D6FBC7F89840D8F84C409B
:101010003CB12168D4E902232046FFF7CBFBC7F897
:101020009C40D8F850403CB12168D4E902232046C6
:10103000FFF7C0FBC7F8A040012038720020BDE8D0
:10104000F88300BF60150020E4300008F5060008B2
:10105000B0B51D4C207A01281CD1FFF753FEC8B152
:101060001A48FF218175817D026881F0FF01B1FA84
:1010700081F1C1F12001C2F302228A4228BF511C32
:10108000FE2202FA01F1124DC17468681149FFF79E
:1010900083F910B14FF0FF30B0BDFFF779F920614F
:1010A000FFF760F904F11C00FFF7B4FDFFF74AFEFB
:1010B0002878C0070CBF0320022080F31488022088
:1010C00020720020B0BD00BF601500200CED00E0D4
:1010D000E4300008E50100082DE9F84300284CD071
:1010E0000F466FF00305002949D004460078FA281E
:1010F00045D1204699469046FFF7D3F8002841D0C5
:10110000064620463146FFF718F9626A06F10C01DF
:101110003846FFF773F8B8F1000F1CBFF07888F875
:10112000000004F10C070025384631463570FFF702
:101130001CFBA06818B33846FFF7FAFA0025F0B197
:1011400006462046FFF766FD002101220746FFF70D
:101150001DFE3846FFF7BEFD8168626A074606F14C
:101160000C00FFF74BF8F920B5703070F868314685
:10117000F0702046FFF7B5F801E06FF00305284650
:10118000BDE8F883B9F1000F10D083204946FFF77E
:10119000E1FD40B1074841692046FFF744FDEFF308
:1011A0000980C0E902786FF00105E8E76FF00205F9
:1011B000E5E700BF601500202DE9F84F002770B16A
:1011C0000D4661B105F10F0121F003060446B0FAA6
:1011D00080F0B6FA86F10844202803D2002738466A
:1011E000BDE8F88F06FB04F872B1D2F808A01368C6
:1011F000D2E90490BAF1000F11D05FEA8A71EDD103
:10120000D1683429EAD30DE000234FF000093449B6
:101210000093D1F8A00078B1FFF78AFA12E0D16804
:101220000029DBD1B9F1000F2FD000274045D6D3DC
:1012300019F003002BD0D2E7D1F88000342101222D
:10124000FFF7FDF982464FF0010BB9F1000F10D105
:10125000BAF1000F0DD0224F4146F86F0022FFF780
:10126000EEF9814638B148464146FEF7E0FF574661
:101270001AE057461AE0BBF1000F14D0D7F8A000CF
:1012800060B15146FFF771FA0DE00028A6D1BAF11E
:10129000000FBCD000934FF0000BD6E7D7F88000CA
:1012A0005146FFF704FA00270BF1020B002F3FF421
:1012B00096AF0020C7E90950C7E90B0000993246F4
:1012C000C7E90110FA2087F802B0387007F10C0066
:1012D00021464B46FFF76EFA0148024901677EE757
:1012E00060150020EB0700082DE9F84338B30E46DF
:1012F0006FF00307002951D005460078FA284DD138
:10130000A86899469046E8B1407883281AD12846C3
:10131000FFF780FC0021012204460027FFF736FD7D
:101320002046FFF7D7FC044680686A6A3146FEF71C
:1013300065FFE06890B380F8008000272EE06FF032
:1013400003072BE005F10C00FFF7F2F980B16A6AA0
:1013500004460C303146FEF751FF0027F92084F88F
:101360000380A770207028462146FEF7BAFF15E0DB
:10137000B9F1000F10D093204946FFF7EBFC40B1C4
:10138000084841692846FFF74EFCEFF30980C0E9A1
:1013900002686FF0010701E06FF002073846BDE810
:1013A000F88300BF6015002070B5184D287A022818
:1013B0002AD1686A40B36C69E06AFFF773FAA069E2
:1013C00018B100210022FFF7E1FCEFF30980A063D0
:1013D000686A8168696211B105F11C02CA60002661
:1013E000C660FFF7AFFC6E61E078C00704D120460D
:1013F000BDE87040FFF7E2BB0420E6606070686BF8
:10140000A06000B1C4606C6370BD00BF60150020B7
:101410002DE9FE4F18B380466AB102F1100A9668B2
:101420009AE88006D2E90053BEB1B00717D1D06860
:10143000442814D317E001244FF0180A0023002792
:101440004FF000090025614A0293D2F88800CDE9E7
:101450000015C0B1FFF76CF91BE0D06818B100248B
:101460002046BDE8FE8F37B10024B9F1000FF7D058
:1014700017F00700F4D1BAF1000F24D0AAF101004F
:101480003728ECD821E0D2F8800044210122FFF770
:10149000D6F806464FF0010B87B97EB184B14B49AF
:1014A0004B4AD1F88400D2F85490C8B1FFF740F904
:1014B0000746002818BF0BF1100B17E0344635E043
:1014C0004248406F0DE04FF0180AB9F1000F1BD0F1
:1014D0000024B9F1480FC3D319F0070015D0BFE7B6
:1014E000486F49460022FFF7AAF807460FB1344675
:1014F0001AE05FEACB7016D03449D1F8880068B1A1
:101500003146FFF732F90EE00124002E3FF49BAF85
:10151000CDE9001502934FF0000BBDE7D1F8800034
:101520003146FFF7C4F800244BF0020B002C3FF4C7
:1015300097AF0198182160600298E07040F2F110B6
:1015400084F802B0208004F10800FEF770FE07EB7B
:10155000090100204039FD22C4F82300C4F8270007
:10156000C4F82B0084F82F0084F8222084F821A0EE
:1015700084F820A0C4E90C79C4E90E181549009D2F
:1015800039601349097849070AD56FF0100101EB5A
:1015900099013A1D4FF0CC3311B108C20139FBE774
:1015A000A16B00220D2A03D041F822000132F9E795
:1015B000094A4FF08070C1E90D28C8630D620348E5
:1015C000064901662046FFF7CDFA49E7601500207D
:1015D000E4300008A52E5AE2B10E0008990C00086C
:1015E000FEE70000014800F0C7B80000A81700207F
:1015F000014800F0C1B8000064170020704772B6BF
:10160000FEE710B590F821100022022905D0042130
:10161000816380F82020012010BD01680B6823F051
:101620000E030B6001680B6823F001030B6090F858
:101630004030C46B012101FA03F3636080F821108C
:1016400080F82020104610BD2DE9F05F90F82110A1
:101650000024022903D004218163012485E001686C
:101660000A6822F00E020A6001680A6822F001028C
:101670000A603F4E3E4FB215DFF8F4C0DFF8F0903D
:10168000DFF8ECA0DFF8E8B0DFF8E4E00168783FCD
:1016900013011502ACF1640CA9F15009AAF13C0A3E
:1016A000ABF1280BAEF1140E4FF48018B14227D9DC
:1016B000B9420ED0614512D049451DD0514518D0D0
:1016C000594518D0714501D1424615E0294EB14225
:1016D00001D1012210E0274E1436B14201D110226F
:1016E0000AE0244E2836B14206D0224A3C329142CA
:1016F00001D11A4600E02A461E49091F0A602BE064
:10170000B94213D0614517D0494522D051451DD06B
:1017100059451DD0714501D142461AE0B14202D16E
:101720004FF0807215E0134EB14201D1012210E05A
:10173000104E1436B14201D110220AE00D4E283667
:10174000B14206D00B4A3C32914201D11A4600E028
:101750002A46074980394A60012180F8211000217A
:1017600080F82010416B01B188472046BDE8F09F0A
:1017700080000240080402402DE9F05FC16B0A6856
:1017800001680B68046C4FF0040808FA04F8844DF3
:10179000844E854FDFF814C2DFF81492DFF814A2EC
:1017A000DFF814B2DFF814E218EA020F65D05FEA3E
:1017B000437862D50A68920603D40A6822F00402CC
:1017C0000A60DFF8F0814FF48062016808F11408C4
:1017D00013011402414524D9A9420DD0B1420FD0C2
:1017E000B9421AD0614515D0494515D0514501D1AE
:1017F000120312E0594501D104220EE0714501D1D6
:1018000040220AE06D4D1435A94206D06B4A2832B9
:10181000914201D11A4600E022466749091F0A6039
:1018200029E0A94213D0B14215D0B94220D0614578
:101830001BD049451BD0514502D14FF4800217E01F
:10184000414502D14FF0806212E0594501D1042296
:101850000EE0714501D140220AE0584D1435A942ED
:1018600006D0564A2832914201D11A4600E022465B
:101870004B4908394A60C16A71E04FF0020808FA22
:1018800004F818EA020F70D05FEA83786DD50A6811
:10189000920606D40A6822F00A020A60012180F842
:1018A0002110DFF810814FF40072016808F114086C
:1018B00013011402414524D9A9420DD0B1420FD0E1
:1018C000B9421AD0614515D0494515D0514501D1CD
:1018D000120312E0594501D102220EE0714501D1F7
:1018E00020220AE0354D1435A94206D0334A283269
:1018F000914201D11A4600E022462F49091F0A6091
:1019000029E0A94213D0B14215D0B94220D0614597
:101910001BD049451BD0514502D14FF4001217E0AE
:10192000414502D14FF0007212E0594501D1022227
:101930000EE0714501D120220AE0204D1435A94264
:1019400006D01E4A2832914201D11A4600E02246B2
:10195000134908394A60002180F82010816A002963
:101960001CD0BDE8F05F0847FFE70825A5401542F9
:1019700014D01A0712D50A6822F00E020A6090F8F5
:101980004020C36B012101FA02F25A60816380F8A2
:101990002110002180F82010016BE0E7BDE8F09FE6
:1019A000080002401C000240300002404400024097
:1019B000580002406C000240080402401C0402402F
:1019C00030B560B11A4B026814219A4209D2194B02
:1019D0001344B3FBF1F18900016417490AE00120C7
:1019E00030BD134B5B421344B3FBF1F1890001643A
:1019F0000F490839C163022180F82110136843F6AA
:101A0000F0718B43F0E901142143D0E902452C43E6
:101A100021430469214344692143846921431943D3
:101A2000116000214163012242770177084630BDF1
:101A300008040240F8FFFDBF000002402DE9F84F06
:101A4000DFF8C891002409F1040A0AF1040B2346C7
:101A50000F270BF1040ED1E00125A54006EA05028F
:101A6000AA4276D1DFF8A8C14E68A6EB0C086645FD
:101A70002BD00DDC032E34D005DC36B3012E19D06B
:101A8000022E2FD11BE0112E16D0122E2AD119E0D2
:101A9000B8F5881F19D006DCB8F5803F15D0B8F529
:101AA000801F1FD111E0B8F5001F0ED0B8F5041F3C
:101AB00018D10AE0CB6815E0CB681B1D12E0CB689B
:101AC00008330FE0CB680C330CE08B682BB1012B93
:101AD0004FF0080303D0456104E0042302E00561F0
:101AE00000E00023FF2A01D8064601E000F10406C9
:101AF0004FEA840501D9A5F12005D6F8008007FA40
:101B000005FC28EA0C0803FA05F548EA0508C6F8BA
:101B100000804D68ED0070D53E4DAE6946F001067F
:101B2000AE61AD6924F0030605F0010500953A4D5C
:101B300006EB050CDCF80850A607360F07FA06F886
:101B400025EA0805DFF8D480404503D14FF00008AE
:101B500025E052E0DFF8C880404502D14FF001088F
:101B60001DE0DFF8C080404502D14FF0020816E0CA
:101B7000DFF8B480404502D14FF003080FE0DFF8F2
:101B8000AC80404502D14FF0040808E0DFF8A080A7
:101B9000404502D14FF0050801E04FF0060808FA71
:101BA00006F848EA0508CCF808804D68D9F80060C6
:101BB000ED034D4601D5164300E096432E604D6877
:101BC000DAF80060AD03554601D5164300E09643B0
:101BD0002E604D68DBF80060ED025D4601D51643CE
:101BE00000E096432E604D68DEF80060AD02754659
:101BF00001D5164300E096432E60641C0A68164621
:101C0000E2407FF429AFBDE8F88F000000040140F6
:101C100000001110001002400000014000080140C7
:101C2000000C014000100140001401400018014068
:101C3000001C0140C26821EA02030A4043EA024153
:101C4000016170470AB1016170470904FBE70000B8
:101C500001488068704700005415002070B50400EA
:101C600011D021684CF6CC400860216845F25550EF
:101C70000860D4E9000141602168A0688860FFF72E
:101C8000E7FF05460DE0012070BD00BFFFF7E0FF54
:101C9000401B272805D92068C068800701D0032091
:101CA00070BD2068C0688007F0D121684AF6AA207C
:101CB0000860002070BD00684AF6AA21016000207B
:101CC00070470000024881680278114481607047C3
:101CD00054150020074810B5016841F0100101605B
:101CE000032000F0A1F80F2000F006F800F050F8F3
:101CF000002010BD0020024030B50546204887B0C6
:101D0000C16941F00101C161C06906A900F001008B
:101D1000009001A800F030F90498B8B100F04CF937
:101D2000400018494FF08042B0FBF1F11648491EBF
:101D30000260416040F2E7320021C0E90321816086
:101D4000816100F021FB040003D015E000F034F9BC
:101D5000E7E70D4800F046FB04000DD11C2000F021
:101D600035F8102D07D2002229461C2000F03CF83F
:101D70000648056000E0012407B0204630BD0000A1
:101D80000010024040420F00EC17002058150020C0
:101D90000C4808B5816941F001018161816901F058
:101DA00001010091C16941F08051C161C06900F039
:101DB000805000900448416821F0E06141F00071DA
:101DC000416008BD0010024000000140002809DB0E
:101DD00000F01F02012191404009800000F1E02045
:101DE000C0F8001170470000F0B40E4B1B680C46A1
:101DF000C3F30223C3F10705042D00D90425191DDF
:101E0000072901D2002300E0DB1E012606FA05F1B6
:101E1000491E214099409E40761E16403143F0BC39
:101E200001F0A7B80CED00E0064900F007020868D1
:101E30004FF6FF03184040EA0220034A10430860AF
:101E4000704700000CED00E00000FA052DE9F047B6
:101E50000F46050061D0434E306800F00700B842DD
:101E600009D2306820F0070038433060306800F055
:101E70000700B84251D128683B4C810712D5400772
:101E800003D5606840F4E06060602878000703D5FF
:101E9000606840F4605060606068A96820F0F000FD
:101EA000084360602878C00728D06868012810D0EF
:101EB0002168022810D0890700292EDA616821F0F4
:101EC000030101436160FFF7C3FE804641F2883998
:101ED0000DE021688903EFE78901EDE7FFF7B8FE20
:101EE000A0EB0801494502D90320BDE8F0876068EE
:101EF000696800F00C00B0EB810FEFD1306800F0A2
:101F00000700B8420BD9306820F007003843306032
:101F1000306800F00700B84201D00120E5E72878DA
:101F2000400705D56068E96820F4E0600843606018
:101F30002878000706D56068296920F4605040EAD7
:101F4000C100606000F058F86168084AC1F30311ED
:101F5000515CC8400649086006480068FFF7CCFE9F
:101F60000020C2E700200240001002405C30000860
:101F700050150020581500200F2202600C4A5368AB
:101F800003F003034360536803F0F0038360536876
:101F900003F4E063C36052684FF4E06303EAD202E3
:101FA00002610448006800F0070008607047000004
:101FB00000100240002002400448054900684968BA
:101FC000044AC1F30221515CC840704750150020FB
:101FD000001002406C300008044805490068496858
:101FE000044AC1F3C221515CC8407047501500201B
:101FF000001002406C30000812A185B00FC98DE8B6
:102000000F0014A0144A006804905168134801F0AE
:102010000C03042B10D0082B0ED1C1F38343C9034A
:102020001DF803000AD5516804AAC1F34041515C70
:102030000A4A5043B0FBF1F005B0704708494843E5
:10204000FAE7000002030405060708090A0B0C0D55
:102050000E0F1010010200000010024000127A0062
:1020600000093D002DE9F84F040070D02078C04DE4
:10207000C00749D06868C0F38100012807D06868AC
:10208000C0F38100022809D16868C00306D528681A
:10209000800339D560680028E7D035E06068B0F586
:1020A000803F0BD010B1B0F5A02F11D0286820F4DC
:1020B00080302860286820F4802002E0286840F4FE
:1020C00080302860606890B1FFF7C2FD06460AE0E4
:1020D000286840F480202860F0E700BFFFF7B8FDD3
:1020E000801B642873D828688003F7D50CE0FFF7BD
:1020F000AFFD064605E000BFFFF7AAFD801B642880
:10210000F0D828688003F7D420789A4E80074FF0E3
:1021100001094FF0000839D5686810F00C0F07D09E
:102120006868C0F38100022809D16868C00306D43A
:102130002868800714D52069012808D110E020699B
:10214000B0B1C6F80090FFF783FD074605E00AE14D
:10215000FFF77EFDC01B0228C4D828688007F7D58A
:102160002868616920F0F80040EAC10028600DE0AD
:10217000C6F80080FFF76CFD074604E0FFF768FD36
:10218000C01B022823D828688007F7D420780007CE
:102190002CD57948A169D9B1C0F80090FFF758FD56
:1021A000074604E0FFF754FDC01B02280FD8686AF9
:1021B0008007F7D571484FF4FA510068B0FBF1F091
:1021C000009000BF0098411E0091FAD20EE080E01E
:1021D000C0F80080FFF73CFD074604E0FFF738FD3C
:1021E000C01B022875D8686A8007F7D4207840079A
:1021F00060D5E8690027C00008D4E86940F0805045
:10220000E861E869012700F0805000905C480168AF
:10221000C90513D40168834641F480710160FFF75A
:1022200017FD824606E000BFFFF712FDA0EB0A0093
:1022300064284ED8DBF80000C005F5D5E068012819
:102240000AD008B1052813D0286A20F001002862BE
:10225000286A20F0040002E0286A40F001002862A9
:10226000E06841F2883B98B1FFF7F2FC82460BE050
:10227000286A40F004002862EEE700BFFFF7E8FCA0
:10228000A0EB0A0159455AD8286A8007F6D50CE018
:10229000FFF7DEFC824605E0FFF7DAFCA0EB0A015F
:1022A00059454CD8286A8007F6D41FB1E86920F058
:1022B0008050E861E06988B36968C1F3810102294F
:1022C00044D00228C6F8608004D0FFF7C1FC044661
:1022D00038E034E0FFF7BCFC074604E0FFF7B8FC49
:1022E000C01B02282BD828688001F7D4206AB0F5DB
:1022F000803F05D16868A16820F400300843686019
:10230000D4E908010843696821F47411084368603E
:10231000C6F86090FFF79CFC044606E025E000BF8D
:10232000FFF796FC001B022809D828688001F7D522
:102330001BE000BFFFF78CFC001B022802D9032022
:10234000BDE8F88F28688001F4D40EE00128F7D0AA
:102350006868226A00F48031914204D1616A00F415
:102360007010884201D00120EAE70020E8E7000071
:1023700000100240000042428004424250150020FA
:10238000007000407047704710B5040003D094F807
:102390003D0010B107E0012010BD002084F83C0092
:1023A000204600F01EF8022084F83D00211D206820
:1023B00000F0BAFC012084F8460084F83E0084F85E
:1023C0003F0084F8400084F8410084F8420084F81B
:1023D000430084F8440084F8450084F83D00002060
:1023E00010BD704790F83D10012901D001207047C1
:1023F000022180F83D100168CA6842F00102CA60FB
:1024000000680E4988420ED00D4988420BD0B0F1C9
:10241000804F08D00B49884205D00B49884202D032
:102420000A49884204D1816801F00701062903D0D6
:10243000016841F00101016000207047002C01405B
:10244000003401400004004000080040000C00403F
:10245000704770B50446006801694FF00005C94334
:10246000890715D4C168C943890711D4E91E0161E0
:1024700001202077206880698007204602D0FFF77E
:10248000E7FF04E000F098F8204600F096F8257782
:1024900020680169C943490717D4C168C94349077E
:1024A00013D46FF004010161022020772068806955
:1024B00010F4407F204602D0FFF7CAFF04E000F08E
:1024C0007BF8204600F079F8257720680169C94338
:1024D000090716D4C168C943090712D46FF008016F
:1024E0000161042020772068C0698007204602D05F
:1024F000FFF7AEFF04E000F05FF8204600F05DF863
:10250000257720680169C943C90617D4C168C94342
:10251000C90613D46FF010010161082020772068EC
:10252000C06910F4407F204602D0FFF791FF04E01D
:1025300000F042F8204600F040F825772068016955
:10254000C943C90708D1C168C943C90704D1891E55
:102550000161204600F032F820680169C94309068C
:1025600009D4C168C943090605D46FF0800101612F
:102570002046FFF707FF20680169C943490609D4CF
:10258000C168C943490605D46FF040010161204686
:1025900000F01BF820680169C94389060BD4C168A3
:1025A000C943890607D46FF0200101612046BDE8C8
:1025B0007040FFF7E8BE70BD704770470068B0F12B
:1025C000804F01D1FFF77EBB70477047704770475F
:1025D000F8B5026804461068D168536910F00F0F0F
:1025E0004FF0000553D003F0010601F49077374314
:1025F0005FD0C20705D0CA0503D5226C42F00102A4
:102600002264420705D5DA0703D0226C42F00202A9
:102610002264820705D5DA0703D0226C42F0040257
:102620002264020707D501F02002324303D0226C56
:1026300042F008022264226C002A34D0800604D5BD
:10264000880602D5204600F0D5FB20684069216C41
:10265000C0F38010090700D430B3204600F0B2FB6D
:102660002068416949061BD5416921F0400141615B
:10267000A06BA8B158494163A06BFEF7E5FF0028A5
:1026800011D0A06B416B01B0BDE8F0400847830654
:102690000FD58B060DD52046BDE8F84000F0AABB4B
:1026A0002046FFF794FFF8BD2046FFF790FF256412
:1026B000F8BD266B2023012E52D1C60650D5CE067A
:1026C0004ED5106850680090506940062AD5A16B1D
:1026D000086840680004000CEAD0A68D8642E7D95D
:1026E000E0858869202818D0D06820F48070D060F8
:1026F0002068416921F0010141612068416921F0B0
:102700004001416184F83E3025632068C16821F0B2
:102710001001C160A06BFEF774FFA08DE18D401A1F
:1027200081B219E0A08DE18D401A81B2E08D0028C0
:10273000BED00029BCD0D06820F49070D060206852
:10274000426922F00102426184F83E30256320682C
:10275000C26822F01002C2602046FFF737FFF8BDC2
:1027600005062BD50D0629D594F83D002128F6D174
:10277000A068B0F5805F01D12069B0B1206A411C2A
:102780002162216800784860E08C401E0004000C43
:10279000E084E4D12068C16821F08001C160206834
:1027A000C16841F04001C160F8BD206A0088C0F3F3
:1027B00008005060206A801C2062E5E74006F3D5DF
:1027C0004806F1D5D168204621F04001D16084F857
:1027D0003D3000F044F9F8BDB52D000870B5040097
:1027E00004D094F83D00002510B106E0012070BD32
:1027F00084F83C50204600F023F8242084F83D0063
:102800002068C16821F40051C160204600F04EFBF1
:102810002068016921F4904101612068416921F03B
:102820002A0141612068C16841F40051C1602564FA
:10283000202084F83D0084F83E00002070BD000098
:102840002DE9F04385B00024009401940294039490
:10285000064603687648754D071502210322DFF806
:10286000D4C14FF40069AB4216D1C36943F40023CD
:10287000C361C36903F400230493836943F0100325
:1028800083618069CDE9007100F01000CDE903207B
:10289000694665466046C0E0DFF89C8104254345F3
:1028A00029D1C36943F48013C361C36903F480135E
:1028B0000493836943F010038361836903F0100379
:1028C0000493836943F0200383618069039200F0DD
:1028D00020000490A802CDE9000169466046FFF798
:1028E000ADF8CDE90054694654480294FFF7A6F8C4
:1028F00005B0BDE8F083DFF848C1DFF848816345E3
:1029000051D1836943F480438361836903F4804335
:102910000493836943F0040383618069039200F0A8
:10292000040004904FF40070CDE90001694645466B
:102930004046FFF783F8CDE90074694628460294C3
:10294000FFF77CF8414D40488027C5E90004C5E900
:1029500002472C616C61AC612846EC61FFF730F8EE
:1029600008B1FEF74CFEB5636E62384D364844350B
:10297000143801C5102091C5344845F81049443039
:102980006C61AC61EC61FFF71BF808B1FEF737FE34
:1029900075630022114625206E62FFF725FA252077
:1029A000FFF714FAA4E72A4EB3421DD1C36943F4DA
:1029B0000033C361C36903F400330493836943F0B4
:1029C000040383618069CDE9005100F00400CDE982
:1029D000032069464046FFF731F80820CDE900049E
:1029E00069464046029481E71A4DAB4280D1C369E3
:1029F00043F48023C361C36903F480230493836990
:102A000043F0080383618069CDE9007100F008009C
:102A1000CDE90320104D69462846FFF70FF8CDE9B0
:102A2000009469462846029460E70000004C00408C
:102A3000001002400010014000500040001401400E
:102A4000003801400008014058000240641700208F
:102A50000044004000480040000C014070477047AF
:102A6000FEE700000D4808B5416941F001014161F0
:102A70004069002200F00100009011460E20FFF78F
:102A8000B3F90E20FFF7A2F9002211460F20FFF73D
:102A9000ABF9BDE808400F20FFF798B900100240DD
:102AA0002DE9F04786B000242D480094019402944B
:102AB0000394816941F010018161816901F0100185
:102AC0000491816941F004018161816901F004018F
:102AD0000491816941F008018161816901F0080177
:102AE0000491816941F0200181618069DFF874807F
:102AF00000F020004FF40055049000222946404683
:102B0000FFF7A0F8DFF8609048F20217002239467C
:102B10004846FFF797F8DFF854A000220A215046F4
:102B2000FFF790F80095022601250396CDE90154A0
:102B300069464046FEF782FF00970396CDE90154AF
:102B400069464846FEF77AFF0A20CDE90005CDE93F
:102B5000024669465046FEF771FF06B0BDE8F087B1
:102B6000001002400010014000080140000C01402C
:102B7000094810B507490160052141604FF44871CB
:102B80008160FFF76BF8002803D0BDE81040FEF726
:102B900036BD10BD00300040041600200C4810B5B2
:102BA0000A4901604FF4E1314160002181600C224B
:102BB000C160C0E904128161C161FFF70FFE002806
:102BC00003D0BDE81040FEF71ABD10BD004C004018
:102BD000101600200C4810B50A4901604FF4E1318D
:102BE0004160002181600C22C160C0E90412816152
:102BF000C161FFF7F3FD002803D0BDE81040FEF7E8
:102C0000FEBC10BD00500040541600200C4810B50A
:102C10000A4901604FF4E1314160002181600C22DA
:102C2000C160C0E904128161C161FFF7D7FD0028CE
:102C300003D0BDE81040FEF7E2BC10BD00380140F3
:102C4000981600200C4810B50A4901604FF4E13194
:102C50004160002181600C22C160C0E904128161E1
:102C6000C161FFF7BBFD002803D0BDE81040FEF7AF
:102C7000C6BC10BD00440040DC1600200C4810B556
:102C80000A4901604FF4E1314160002181600C226A
:102C9000C160C0E904128161C161FFF79FFD002896
:102CA00003D0BDE81040FEF7AABC10BD00480040AC
:102CB00020170020FEE7FEE730B58FB028216846D8
:102CC000FDF7B5FA14210AA8FDF7B1FA0A20009021
:102CD00001200225CDE906051021CDE904010024DB
:102CE0004FF46010CDE908406846FFF7BBF908B122
:102CF00072B6FEE70F20CDE90A054FF48060CDE9FA
:102D00000C4002210AA80E94FFF7A0F8002801D079
:102D100072B6FEE70FB030BD704700000148FFF704
:102D200098BB0000EC170020F0B502681C4B1D4D4D
:102D30001D4E1E4F1E4C4FF0804C984209D0A042B1
:102D400007D0604505D0A84203D0B04201D0B842B8
:102D500004D122F0700E4A6842EA0E02984209D06D
:102D6000A04207D0604505D0A84203D0B04201D0B0
:102D7000B84203D122F44075CA682A434D6922F053
:102D800080022A4302608A68C2620A6882629842AC
:102D900001D0A04201D10969016301214161F0BD67
:102DA000002C01400004004000080040000C0040DE
:102DB0000034014010B5406A0021C185C184FFF78D
:102DC00006FC10BD0168CA6822F49072CA600168EE
:102DD0004A6922F001024A61016B012904D10168AC
:102DE000CA6822F01002CA60202180F83E1000213B
:102DF0000163704708B590F83E10222901D00220E7
:102E000008BD82684FF480539A4201D1016921B113
:102E1000816A9A421BD04AB10AE00268816A52680C
:102E2000C2F308020A80816A891C08E0026972B153
:102E30000268526802F07F020A70816A491C81624E
:102E4000C18D491E0904090CC18503D019E002682F
:102E50005268F1E70168CA6822F02002CA6001687E
:102E6000CA6822F48072CA6001684A6922F00102CD
:102E70004A61202180F83E10016B012903D0FFF741
:102E8000EDFD002008BD002101630168CA6822F041
:102E90001002CA6001680A68D20602D50A68496849
:102EA0000091818DFFF792FBEBE7000070B50446BF
:102EB00000680169E26821F4405111430161216910
:102EC000A0680843616908432168CA6841F20C633D
:102ED0009A430243CA6020684169A26921F44071A3
:102EE000114341611E492068884202D1FFF774F8FE
:102EF00001E0FFF761F800EBC00101EB0012606830
:102F000064218000B2FBF0F3B3FBF1F36FF018061D
:102F10007343B2FBF0F5B2FBF0F605EB8305322309
:102F200003EB0515B5FBF1F5B6FBF1F605F0F00581
:102F300005EB0615B2FBF0F6B2FBF0F0B0FBF1F0DA
:102F40006FF01802504306EB800003EB0010B0FB5B
:102F5000F1F0216800F00F002844886070BD000087
:102F6000003801400148FFF733BB000098160020ED
:102F7000FEE70907090E002804DB00F1E02080F8D5
:102F80000014704700F00F0000F1E02080F8141DDD
:102F9000704702E008C8121F08C1002AFAD1704722
:102FA0007047002001E001C1121F002AFBD17047C9
:102FB00010B5FDF797FA074A00210748FDF77EFF95
:102FC000FDF778FA012803D1BDE81040FDF7A0BA5B
:102FD00010BD00003830000811300008FEF77AFEFE
:102FE000FFF76AFEFFF75CFDFFF73CFDFFF7D6FD3C
:102FF000FFF7F0FDFFF70AFEFFF724FEFFF73EFEA6
:10300000FFF7B6FDFFF7D4FFFEE7FEE7FEE700009F
:10301000074D4FF400544FF4FA7621462846FEF748
:1030200009FE3046FDF734FA0248FEF744FEF4E7A5
:103030000010014004160020D830000800000000F5
:103040000000000000000000000000000000000080
:103050001800000000000000000000000000000058
:103060000000000001020304060708090000000038
:10307000010203040000000000000000C410002052
:103080004400000050110020000200000100000078
:103090000000000000000000000000000000000030
:1030A000081100204400000050130020000200001E
:1030B00028000000000000000000000000000000E8
:1030C00000000000401000203400000074100020B8
:1030D00050000000000000006170705F6D61696E5B
:1030E0000000000003000000E803000005000000ED
:1030F0000010002010000000000000000000000090
:1031000000000000000000000000000000000000BF
:10311000000000200010000000000000000000007F
:10312000000000000000000000000000000000009F
:1031300000000000000000000002000074300008E1
:1031400098300008BC30000804000000C4100020C3
:103150004C110020000000000000000000000000F2
:10316000000000000000000000000000000000005F
:1031700000000000000000000000000040100020DF
:10318000741000205254582056352E352E3200002F
:10319000B03100080000002004160000680200089A
:1031A000F03100080416002034060000A22F0008A9
:1031B00001FF01FF01FF01FF01FF01FF01FF01FF0F
:1031C00001FF01FF01FF01FF01FF01FF01FF01FFFF
:1031D00001FF01FF01FF01FF01FF017C4524F40015
:1031E000018210099D84310008D2B3FB0200000067
:0400000508000131BD
:00000001FF
