:020000040800F2
:10000000E83D002021030008C3130008A9110008DF
:10001000C11300082D040008791500080000000035
:10002000000000000000000000000000590200086D
:100030002F04000800000000D10200080D03000892
:100040003B0300083B0300083B0300083B03000898
:100050003B0300083B0300083B0300083B03000888
:100060003B0300083B0300083B0300083B03000878
:100070003B0300083B0300083B0300083B03000868
:100080003B0300083B0300083B0300083B03000858
:100090003B0300083B0300083B0300083B03000848
:1000A0003B0300083B0300083B0300083B03000838
:1000B000291400083B0300083B0300083B03000829
:1000C0003B0300083B0300083B0300083B03000818
:1000D0003B0300083B0300083B0300083B03000808
:1000E0003B0300083B0300083B0300083B030008F8
:1000F0003B0300083B0300083B0300083B030008E8
:100100003B0300083B0300083B0300083B030008D7
:100110003B0300083B0300083B0300083B030008C7
:100120003B0300083B0300083B0300083B030008B7
:1001300000F002F800F03AF80AA090E8000C8244BF
:100140008344AAF10107DA4501D100F02FF8AFF29C
:10015000090EBAE80F0013F0010F18BFFB1A43F0A5
:1001600001031847D0270000F0270000103A24BFF1
:1001700078C878C1FAD8520724BF30C830C144BF0C
:1001800004680C607047000000230024002500264E
:10019000103A28BF78C1FBD8520728BF30C148BFEA
:1001A0000B6070471FB51FBD10B510BD00F016F9EC
:1001B0001146FFF7F7FF0FB400F00CF80FBC01F089
:1001C000BBFA00F0D1F803B4FFF7EEFF03BC00F078
:1001D000FFF8000004B001F0C3FA0448002101F068
:1001E00013FB01F0CFFA00F0BFF80000242900084B
:1001F00080F309887047EFF309807047684680F301
:10020000098804480078C00714BF0220032080F347
:1002100014887047E4280008DFF818C0EFF305835E
:100220001B0618BF6047EFF31483DB0708BF604766
:1002300000DF7047B3180008DFF818C0EFF305833C
:100240001B0618BF6047EFF31483DB0708BF604746
:1002500000DF7047911A0008EFF30980816911F8F7
:10026000021CF1B990E80F10E047EFF3098C8CE81D
:100270000700144B93E8060091420FD039B12CE9E6
:10028000F00FC1F828C00CB401F09EFF0CBC1A603E
:10029000D2F828C0BCE8F00F8CF309886FF0020E8A
:1002A000704710B5084A1268914209D8074C54F8B3
:1002B000214090E80F10A047EFF3098C8CE80F0065
:1002C00010BD0000240000202804000828040008B5
:1002D00001F04CFE0C4B93E80600914210D0EFF376
:1002E000098C2CE9F00FC1F828C00CB401F06CFFA8
:1002F0000CBC1A60D2F828C0BCE8F00F8CF3098857
:100300006FF0020E704700002400002002F024F875
:10031000E0E7000001F0CCFA02F01EF8DAE7000096
:100320000948804709480047FEE7FEE7FEE7FEE789
:10033000FEE7FEE7FEE7FEE7FEE7FEE704480549C5
:10034000054A064B704700002514000831010008DB
:10035000E8370020E83D0020E8390020E839002097
:10036000004870478437002010B50446AFF3008082
:100370002046BDE81040FFF726BF4FF0000200B551
:10038000134694469646203922BFA0E80C50A0E8B8
:100390000C50B1F12001BFF4F7AF090728BFA0E866
:1003A0000C5048BF0CC05DF804EB890028BF40F832
:1003B000042B08BF704748BF20F8022B11F0804F74
:1003C00018BF00F8012B7047704770477047000056
:1003D00001491820ABBEFEE7260002007546FFF774
:1003E000BFFFAE4605006946534620F0070085462C
:1003F00018B020B5FFF7A2FFBDE820404FF000067F
:100400004FF000074FF000084FF0000B21F00701FC
:10041000AC46ACE8C009ACE8C009ACE8C009ACE83F
:10042000C0098D467047704700000000FEE7704726
:1004300072B6FEE72DE9F84FDFF8C891002409F104
:10044000040A0AF1040B23460F270BF1040ED1E036
:100450000125A54006EA0502AA4276D1DFF8A8C127
:100460004E68A6EB0C0866452BD00DDC032E34D06D
:1004700005DC36B3012E19D0022E2FD11BE0112E30
:1004800016D0122E2AD119E0B8F5881F19D006DC33
:10049000B8F5803F15D0B8F5801F1FD111E0B8F531
:1004A000001F0ED0B8F5041F18D10AE0CB6815E084
:1004B000CB681B1D12E0CB6808330FE0CB680C3310
:1004C0000CE08B682BB1012B4FF0080303D0456182
:1004D00004E0042302E0056100E00023FF2A01D8C4
:1004E000064601E000F104064FEA840501D9A5F1B2
:1004F0002005D6F8008007FA05FC28EA0C0803FA64
:1005000005F548EA0508C6F800804D68ED0070D58D
:100510003E4DAE6946F00106AE61AD6924F00306BA
:1005200005F0010500953A4D06EB050CDCF8085086
:10053000A607360F07FA06F825EA0805DFF8D48083
:10054000404503D14FF0000825E052E0DFF8C880B5
:10055000404502D14FF001081DE0DFF8C080404562
:1005600002D14FF0020816E0DFF8B480404502D116
:100570004FF003080FE0DFF8AC80404502D14FF0A8
:10058000040808E0DFF8A080404502D14FF00508DC
:1005900001E04FF0060808FA06F848EA0508CCF82A
:1005A00008804D68D9F80060ED034D4601D516432B
:1005B00000E096432E604D68DAF80060AD035546C2
:1005C00001D5164300E096432E604D68DBF80060CD
:1005D000ED025D4601D5164300E096432E604D685E
:1005E000DEF80060AD02754601D5164300E0964383
:1005F0002E60641C0A681646E2407FF429AFBDE80D
:10060000F88F0000000401400000111000100240AB
:100610000000014000080140000C014000100140B2
:100620000014014000180140001C01400AB10161A2
:1006300070470904FBE7000001488068704700002C
:100640000400002070B5040011D021684CF6CC40A5
:100650000860216845F255500860D4E90001416006
:100660002168A0688860FFF7E7FF05460DE00120DC
:1006700070BD00BFFFF7E0FF401B272805D92068A9
:10068000C068800701D0032070BD2068C068800763
:10069000F0D121684AF6AA200860002070BD000051
:1006A000024881680278114481607047040000208C
:1006B000074810B5016841F010010160032000F007
:1006C000A1F80F2000F006F800F050F8002010BD4F
:1006D0000020024030B50546204887B0C16941F08E
:1006E0000101C161C06906A900F00100009001A8E4
:1006F00000F030F90498B8B100F04CF94000184906
:100700004FF08042B0FBF1F11648491E0260416093
:1007100040F2E7320021C0E903218160816100F0ED
:1007200021FB040003D015E000F034F9E7E70D48A1
:1007300000F046FB04000DD11C2000F035F8102D10
:1007400007D2002229461C2000F03CF8064805602C
:1007500000E0012407B0204630BD00000010024038
:1007600040420F00A4010020080000200C4808B5FA
:10077000816941F001018161816901F0010100910C
:10078000C16941F08051C161C06900F080500090A2
:100790000448416821F0E06141F00071416008BD0A
:1007A0000010024000000140002809DB00F01F0299
:1007B000012191404009800000F1E020C0F80011C3
:1007C00070470000F0B40E4B1B680C46C3F30223C5
:1007D000C3F10705042D00D90425191D072901D2ED
:1007E000002300E0DB1E012606FA05F1491E214028
:1007F00099409E40761E16403143F0BC00F0BDBECD
:100800000CED00E0064900F0070208684FF6FF0310
:10081000184040EA0220034A104308607047000075
:100820000CED00E00000FA052DE9F0470F46050049
:1008300061D0434E306800F00700B84209D23068FA
:1008400020F0070038433060306800F00700B842FD
:1008500051D128683B4C810712D5400703D5606809
:1008600040F4E06060602878000703D5606840F4D9
:10087000605060606068A96820F0F0000843606024
:100880002878C00728D06868012810D0216802287D
:1008900010D0890700292EDA616821F00301014395
:1008A0006160FFF7C9FE804641F288390DE021689A
:1008B0008903EFE78901EDE7FFF7BEFEA0EB080132
:1008C000494502D90320BDE8F0876068696800F0F7
:1008D0000C00B0EB810FEFD1306800F00700B84298
:1008E0000BD9306820F0070038433060306800F0E2
:1008F0000700B84201D00120E5E72878400705D578
:100900006068E96820F4E0600843606028780007C8
:1009100006D56068296920F4605040EAC100606033
:1009200000F058F86168084AC1F30311515CC840EF
:100930000649086006480068FFF7CCFE0020C2E7C1
:100940000020024000100240BC28000800000020E7
:10095000080000200F2202600C4A536803F00303D2
:100960004360536803F0F0038360536803F4E0636B
:10097000C36052684FF4E06303EAD20202610448A4
:10098000006800F007000860704700000010024097
:10099000002002400448054900684968044AC1F340
:1009A0000221515CC8407047000000200010024046
:1009B000CC2800080448054900684968044AC1F386
:1009C000C221515CC8407047000000200010024066
:1009D000CC28000812A185B00FC98DE80F0014A023
:1009E000144A006804905168134801F00C03042B6A
:1009F00010D0082B0ED1C1F38343C9031DF80300A7
:100A00000AD5516804AAC1F34041515C0A4A5043D7
:100A1000B0FBF1F005B0704708494843FAE7000021
:100A200002030405060708090A0B0C0D0E0F10102F
:100A3000010200000010024000127A0000093D008F
:100A40002DE9F84F040070D02078C04DC00749D080
:100A50006868C0F38100012807D06868C0F381008E
:100A6000022809D16868C00306D52868800339D5F3
:100A700060680028E7D035E06068B0F5803F0BD0B3
:100A800010B1B0F5A02F11D0286820F48030286074
:100A9000286820F4802002E0286840F48030286034
:100AA000606890B1FFF7C8FD06460AE0286840F488
:100AB00080202860F0E700BFFFF7BEFD801B6428A0
:100AC00073D828688003F7D50CE0FFF7B5FD06461C
:100AD00005E000BFFFF7B0FD801B6428F0D8286850
:100AE0008003F7D420789A4E80074FF001094FF029
:100AF000000839D5686810F00C0F07D06868C0F39B
:100B00008100022809D16868C00306D428688007DC
:100B100014D52069012808D110E02069B0B1C6F8C9
:100B20000090FFF789FD074605E00AE1FFF784FD25
:100B3000C01B0228C4D828688007F7D528686169D7
:100B400020F0F80040EAC10028600DE0C6F80080FF
:100B5000FFF772FD074604E0FFF76EFDC01B022899
:100B600023D828688007F7D4207800072CD5794847
:100B7000A169D9B1C0F80090FFF75EFD074604E017
:100B8000FFF75AFDC01B02280FD8686A8007F7D507
:100B900071484FF4FA510068B0FBF1F0009000BFCB
:100BA0000098411E0091FAD20EE080E0C0F800806B
:100BB000FFF742FD074604E0FFF73EFDC01B022899
:100BC00075D8686A8007F7D42078400760D5E8694F
:100BD0000027C00008D4E86940F08050E861E86967
:100BE000012700F0805000905C480168C90513D4CB
:100BF0000168834641F480710160FFF71DFD824664
:100C000006E000BFFFF718FDA0EB0A0064284ED8ED
:100C1000DBF80000C005F5D5E06801280AD008B16E
:100C2000052813D0286A20F001002862286A20F0E5
:100C3000040002E0286A40F001002862E06841F206
:100C4000883B98B1FFF7F8FC82460BE0286A40F039
:100C500004002862EEE700BFFFF7EEFCA0EB0A01FC
:100C600059455AD8286A8007F6D50CE0FFF7E4FC0E
:100C7000824605E0FFF7E0FCA0EB0A0159454CD89D
:100C8000286A8007F6D41FB1E86920F08050E86137
:100C9000E06988B36968C1F38101022944D0022860
:100CA000C6F8608004D0FFF7C7FC044638E034E0A3
:100CB000FFF7C2FC074604E0FFF7BEFCC01B02289A
:100CC0002BD828688001F7D4206AB0F5803F05D181
:100CD0006868A16820F4003008436860D4E908011E
:100CE0000843696821F4741108436860C6F860908D
:100CF000FFF7A2FC044606E025E000BFFFF79CFCDE
:100D0000001B022809D828688001F7D51BE000BF26
:100D1000FFF792FC001B022802D90320BDE8F88FE0
:100D200028688001F4D40EE00128F7D06868226AB0
:100D300000F48031914204D1616A00F4701088425D
:100D400001D00120EAE70020E8E70000001002409F
:100D50000000424280044242000000200070004037
:100D60007047704710B5040003D094F83D0010B1EF
:100D700007E0012010BD002084F83C00204600F070
:100D80001EF8022084F83D00211D206800F052FB6F
:100D9000012084F8460084F83E0084F83F0084F87F
:100DA000400084F8410084F8420084F8430084F84D
:100DB000440084F8450084F83D00002010BD7047D1
:100DC00090F83D10012901D001207047022180F8E0
:100DD0003D100168CA6842F00102CA6000680E490D
:100DE00088420ED00D4988420BD0B0F1804F08D018
:100DF0000B49884205D00B49884202D00A498842F3
:100E000004D1816801F00701062903D0016841F08F
:100E10000101016000207047002C014000340140B6
:100E20000004004000080040000C0040704770B50E
:100E30000446006801694FF00005C943890715D4CD
:100E4000C168C943890711D4E91E016101202077D7
:100E5000206880698007204602D0FFF7E7FF04E0A2
:100E600000F098F8204600F096F825772068016990
:100E7000C943490717D4C168C943490713D46FF060
:100E800004010161022020772068806910F4407F0E
:100E9000204602D0FFF7CAFF04E000F07BF82046AE
:100EA00000F079F8257720680169C943090716D44D
:100EB000C168C943090712D46FF008010161042019
:100EC00020772068C0698007204602D0FFF7AEFF78
:100ED00004E000F05FF8204600F05DF82577206818
:100EE0000169C943C90617D4C168C943C90613D4E7
:100EF0006FF010010161082020772068C06910F4AC
:100F0000407F204602D0FFF791FF04E000F042F856
:100F1000204600F040F8257720680169C943C907D9
:100F200008D1C168C943C90704D1891E016120469F
:100F300000F032F820680169C943090609D4C16884
:100F4000C943090605D46FF0800101612046FFF70F
:100F500007FF20680169C943490609D4C168C9432C
:100F6000490605D46FF040010161204600F01BF8EE
:100F700020680169C94389060BD4C168C943890641
:100F800007D46FF0200101612046BDE87040FFF7F3
:100F9000E8BE70BD704770470068B0F1804F01D166
:100FA000FFF77EBB7047704770B5040004D094F81B
:100FB0003D00002510B106E0012070BD84F83C50D2
:100FC000204600F023F8242084F83D002068C16802
:100FD00021F40051C160204600F072FA20680169D6
:100FE00021F4904101612068416921F02A014161A9
:100FF0002068C16841F40051C1602564202084F854
:101000003D0084F83E00002070BD0000F0B585B0C2
:1010100000240094019402940394D0F800C059492C
:101020005948574F0D1502220323C614BC4515D14C
:10103000CF6947F40027CF61CF6907F400270497F1
:101040008F6947F010078F61896901F01001CDE9C0
:101050000331CDE900526946054688E0DFF82CE10E
:101060000427F44528D1CD6945F48015CD61CD69BB
:1010700005F4801504958D6945F010058D618D6925
:1010800005F0100504958D6945F020058D6189698D
:10109000039301F020010491B902CDE900126946E1
:1010A000FFF7C8F9CDE9007469463948CDF8084022
:1010B000FFF7C0F905B0F0BDDFF8D8E03648F445D9
:1010C0001DD18E6946F480468E618E6906F4804695
:1010D00004968E6946F004068E618969039301F0D7
:1010E000040104914115CDE9001269460646FFF757
:1010F000A1F9CDE90054694630460294D8E7DFF8FB
:101100009CE0F4451AD1CD6945F40035CD61CD6937
:1011100005F4003504958D6945F004058D618969F4
:10112000054601F00401CDE90331CDE900726946BD
:10113000FFF780F90820CDE900041CE01848844539
:10114000B8D1C86940F48020C861C86900F4802023
:101150000490886940F0080088618869CDE90052F0
:1011600000F00800CDE903300E4D69462846FFF730
:1011700061F9CDE9006469462846029498E70000C9
:10118000004C0040001002400010014000500040A0
:1011900000140140003801400008014000440040B4
:1011A00000480040000C0140FEE700002DE9F04738
:1011B00086B000242D480094019402940394816920
:1011C00041F010018161816901F010010491816990
:1011D00041F004018161816901F004010491816998
:1011E00041F008018161816901F008010491816980
:1011F00041F0200181618069DFF8748000F02000F7
:101200004FF400550490002229464046FFF70EFA9D
:10121000DFF8609048F20217002239464846FFF78F
:1012200005FADFF854A000220A215046FFF7FEF924
:101230000095022601250396CDE9015469464046F2
:10124000FFF7F8F800970396CDE901546946484640
:10125000FFF7F0F80A20CDE90005CDE9024669461E
:101260005046FFF7E7F806B0BDE8F08700100240EF
:101270000010014000080140000C0140094810B571
:1012800007490160052141604FF448718160FFF713
:10129000D9F9002803D0BDE81040FFF7C9B810BD48
:1012A00000300040440000200C4810B50A4901609D
:1012B0004FF4E1314160002181600C22C160C0E93E
:1012C00004128161C161FFF76FFE002803D0BDE801
:1012D0001040FFF7ADB810BD004C0040500000209A
:1012E0000C4810B50A4901604FF4E131416000211A
:1012F00081600C22C160C0E904128161C161FFF705
:1013000053FE002803D0BDE81040FFF791B810BD90
:1013100000500040940000200C4810B50A490160BC
:101320004FF4E1314160002181600C22C160C0E9CD
:1013300004128161C161FFF737FE002803D0BDE8C8
:101340001040FFF775B810BD00380140D8000020EC
:101350000C4810B50A4901604FF4E13141600021A9
:1013600081600C22C160C0E904128161C161FFF794
:101370001BFE002803D0BDE81040FFF759B810BD90
:10138000004400401C0100200C4810B50A490160CF
:101390004FF4E1314160002181600C22C160C0E95D
:1013A00004128161C161FFF7FFFD002803D0BDE891
:1013B0001040FFF73DB810BD00480040600100201C
:1013C000FEE7FEE730B58FB028216846FEF7D5FF6F
:1013D00014210AA8FEF7D1FF0A200090012002255F
:1013E000CDE906051021CDE9040100244FF4601079
:1013F000CDE908406846FFF723FB08B172B6FEE767
:101400000F20CDE90A054FF48060CDE90C400221A0
:101410000AA80E94FFF708FA002801D072B6FEE77A
:101420000FB030BD704700000148FFF700BD00005D
:10143000A4010020F0B502681C4B1D4D1D4E1E4F2F
:101440001E4C4FF0804C984209D0A04207D0604516
:1014500005D0A84203D0B04201D0B84204D122F056
:10146000700E4A6842EA0E02984209D0A04207D0A4
:10147000604505D0A84203D0B04201D0B84203D1A4
:1014800022F44075CA682A434D6922F080022A433B
:1014900002608A68C2620A688262984201D0A042F1
:1014A00001D10969016301214161F0BD002C0140B6
:1014B0000004004000080040000C004000340140DF
:1014C00070B5044600680169E26821F44051114397
:1014D00001612169A0680843616908432168CA68FD
:1014E00041F20C639A430243CA6020684169A269D1
:1014F00021F44071114341611E492068884202D1A4
:10150000FFF758FA01E0FFF745FA00EBC00101EBE5
:101510000012606864218000B2FBF0F3B3FBF1F3CA
:101520006FF018067343B2FBF0F5B2FBF0F605EB73
:101530008305322303EB0515B5FBF1F5B6FBF1F698
:1015400005F0F00505EB0615B2FBF0F6B2FBF0F086
:10155000B0FBF1F06FF01802504306EB800003EB94
:101560000010B0FBF1F0216800F00F002844886003
:1015700070BD000000380140FEE70907090E002891
:1015800004DB00F1E02080F80014704700F00F0049
:1015900000F1E02080F8141D704710B5002A06DA2B
:1015A00022F00042D21D22F00703102203E0D21CD9
:1015B00022F003030C2213B19C188C4201D90120A4
:1015C00010BD024401448360C0E90021C91AD0184B
:1015D000884202D810600246F9E70020106010BD72
:1015E00005490978002905D000684FF6FF71DFF83A
:1015F0000CC000DF704700001D000020F51E000831
:1016000004490978002903D00068DFF80CC000DF26
:10161000704700001D0000201D1E000808480068DB
:10162000C0010BD507480068C00707D005488038BF
:101630000068002802DA04490120087070470000A1
:10164000FCED00E0800E00E0400000204FF0604222
:10165000D36F002BFCD0036BD367D36F002BFCD070
:10166000C07840EA0120A2F87C0070474FF060414A
:10167000CA6F002AFCD081F87C0070470EB580222A
:1016800000B109B110460AE001780129FAD101A997
:1016900000F020F8042801D0002000E01020DDE94F
:1016A000011203B000BD70B50D46040003D012B99D
:1016B0002078012801D0802070BD204600F0A8FAD3
:1016C00028B12946204600F030F8002070BD812066
:1016D00070BD000010B504468089002824D06089C0
:1016E00004EB800000690860606840B160780228FF
:1016F00005D10021204600F087FC00F075FC04F1C4
:101700000C0000BFD0E85F1F491E8AB2C0E8512F0D
:101710000029F7D16089401C80B26081E18988424C
:1017200001D100206081042010BD10B500F06CFCD8
:10173000BDE8104000F058BCFEF7BAFFFFF742FECC
:10174000FFF734FDFFF7B0FDFFF7CAFDFFF7E4FD3B
:10175000FFF7FEFDFFF718FEFFF790FDFEE7000024
:10176000EFF3058008B182207047EFF31480C007C3
:1017700003D0DFF80CC000DF704700F079BF000035
:101780007126000888B0EFF3058010B1822008B000
:101790007047EFF3148010F00301134806D00129BD
:1017A0001BD0022911D0032919D113E008A981F314
:1017B00009880078C0070BD05FF0020080F314881E
:1017C000BFF34F8FBFF36F8F09E00078C00706D1DA
:1017D0000320F3E70078C00701D0FF20D7E7DFF848
:1017E0000CC000DFD3E70000E4280008E126000871
:1017F000EFF305820AB1FFF741BFDFF808C000DF51
:10180000704700004D270008EFF305820AB1002061
:101810007047EFF31482D20702D1044A52781AB10A
:10182000DFF80CC000DF704700F0AEBF1C000020E6
:1018300089270008DFF80CC000DFDFF80CC000DFEC
:10184000FEE70000F527000811280008DFF804C0B3
:1018500000DF704749280008094C4FF0FF35294642
:101860002068FFF7C5FF02460846102AF7D1FFF7A8
:10187000EDFF0028F3D0024608469047EFE700004E
:1018800018000020FEE7FEE7074801684FF0E0205F
:10189000416100218161072101610448016841F033
:1018A0007F41016040177047E028000820ED00E00C
:1018B000704750E8001F31B10B6840E80032002A41
:1018C000F7D108467047BFF32F8FFAE710B568B11C
:1018D00061B10B3121F00302016844680B1A1B1B34
:1018E000934205D2084609680029F5D1002010BDB1
:1018F000210007D021180368C1E90032016001F11D
:10190000080010BD4260083010BD000070B50D46E3
:10191000002812D04FF6FF71084C884204D222688A
:101920000146104600F09EFB20684570044800F018
:10193000D9F8BDE8704000F059BC70BD240000200B
:10194000543700200F4810B50D4942680E480B6807
:101950000068934204D00A60CB88421E1A448A80F1
:101960008A8880B282420AD100200860054800F0CF
:10197000B9F80146BDE81040024800F097BB10BD21
:1019800038000020543700203400002070B5194D75
:10199000E86800282CD0A88A401EA882002621E0F2
:1019A000A06838B161684160606810B1A168816069
:1019B0006660A6600F482146183800F077FBA08AC1
:1019C000A8826078042804D10B49E08A0988084479
:1019D000A08201206070E068E860E06808B10561FD
:1019E000E6602661A88A002802D1EC68002CD7D1D5
:1019F00070BD00006C3700203400002070B504007A
:101A00000FD00D4DA17801262868827891420CD91B
:101A100000F068FB286846702046BDE8704000F082
:101A2000E5BB064800F05EF8F7E766702146BDE8C2
:101A30007040024800F03ABB2400002054370020D8
:101A400010B50446008B084320836278618B062A18
:101A500018D0052A19D1084217D001EA0002628382
:101A600088432083204600F068FB01206070628B71
:101A70000821204600F05DFB2146BDE810400348E8
:101A800000F014BB31EA0002EAD010BD5437002048
:101A9000814202D342688A4201D80120704702681D
:101AA0000A60BFF35F8F50E8003F0A689A42F6D1A0
:101AB00040E80012002AF2D10020704768B161B1FD
:101AC0000022083902E00246006830B18842FAD1AB
:101AD0002AB1006810600020704701207047002183
:101AE0004160F8E70146406842684A600B7800228E
:101AF000022B05D0012B03D0032B01D0426070478D
:101B000043680BB19960426082607047810700D0E2
:101B10000020704770B50446002015462070012251
:101B20006270A17084F824106060A060E0602061A1
:101B30002062A082E0822083608384F82500E08C0C
:101B400018B90548FFF7B5FEE06229462046BDE812
:101B5000704000F01DB800008803002008B108297B
:101B600001D2012070470144091F002201600A6070
:101B7000426010467047000003480021016003499D
:101B80000988C1807047000038000020DC28000868
:101B900070B5C28C1C4D930802D12A88C2F38D0304
:101BA000C26A02EB8302540700D5121F4FF0807403
:101BB00042E9021400242646B2F1400242F82460B1
:101BC000641C0E2CFAD3C469146282620163296812
:101BD000C90014D5112B12D94FF0FF31103B11EB76
:101BE00053014FF0CC3305D042F8043C42F8083D95
:101BF000491EF9D1C16A121F8A4200D91360C06A16
:101C00000249016070BD0000D8280008A52E5AE2E4
:101C1000C1898089081A704701220270002242702F
:101C20008270426002814281103982818908C181BB
:101C3000704700002DE9F041044640680E464FF021
:101C4000000804F10C05E8B36078012701283ED0B4
:101C5000022813D003285CD10846FFF72AFE0500AE
:101C600057D02046FFF73EFF0446294600F05EFAB3
:101C70006770204600F061FA214621E02046FFF718
:101C800031FF0646002100F051FA2189F06904EB8A
:101C900081010861D5E85F0F401C81B2C5E8501F83
:101CA0000028F7D12089401C80B22081E189884238
:101CB00001D1A4F808807770304600F03EFA314632
:101CC000174800E00CE0BDE8F04100F0EFB9204615
:101CD000FFF708FF04463246102100F02AFAC7E752
:101CE000A089E189884216D2208904EB8000066130
:101CF000D5E85F0F401C81B2C5E8501F0028F7D11E
:101D00002089401C80B22081E189884201D1A4F859
:101D10000880BDE8F081BDE8F0410320FFF7B2BDC7
:101D20005437002070B50446808915460026C0B39C
:101D3000608904EB8000006908606089401C80B203
:101D40006081E189884200D16681606810B1607865
:101D500002280BD014F10C04D4E85F0F401E81B2AE
:101D6000C4E8501F0028F7D1002070BD2046FFF7BF
:101D7000B9FE0546002100F0D9F92189E86904EB94
:101D8000810108612089401C80B22081E18988425C
:101D900000D12681284600F0D0F92846FFF72EFE14
:101DA000E2E7FFE73DB10B48626801682AB12046CF
:101DB00000F07CF908E0012070BD616001684E60B0
:101DC000006884600120607008212846FFF79EFDAE
:101DD000F1E7000024000020002814D0411C13D09B
:101DE0000C4A4FF6FE7190420CD800EB4002C2EB59
:101DF000C0120948036803EBC202521EB2FBF3F0A3
:101E0000884204D9084670474FF6FF70704780B289
:101E10007047000000093D00F02800082DE9F0415E
:101E20000446408820B1314DA1682A68914202D011
:101E3000FF20BDE8F081401E0004000C608053D1FB
:101E40002968086AA04209D1E068086208E0C2680F
:101E5000A24202D1E268C26002E010460028F6D138
:101E600091F824000A6A06E053681BB19B7883420C
:101E700000D91846D268002AF6D18870DFF8708041
:101E80006168012611B32046FFF72CFE07460021AA
:101E900000F04CF9384600F050F96680A760386AC7
:101EA000E0603C622968D8F804008A788078824231
:101EB00001D3384616E00E4800F0F8F839460C48D1
:101EC00000F0F4F8286846707E700AE0D8F8041034
:101ED0008A782968824207D9054800F0E7F828681F
:101EE00046700020FFF78AFD0020A2E724000020B2
:101EF0005437002070B51C4D0E46044641882868B2
:101F000061B1A268824210D1A1F57F40FF3803D0B1
:101F1000491C6180002070BDFF2070BDA060016A77
:101F2000E160046201206080F4E776B19178807806
:101F3000814203D29070A06800F0DEF8606830B192
:101F40002046296800F0B2F808E0012070BD28683A
:101F50006060296800204860286884600921304654
:101F6000FFF7D4FCF1E700002400002070B51B4807
:101F7000012102685170006800F0B4F8184D6C78C7
:101F800018E000BF05EBC40148680278EAB1012AF5
:101F900020D000F0FFF8E878641C844200D10024CF
:101FA0000F48801CD0E84F1F491EC9B2C0E8421F2D
:101FB000002AF7D1A8780028E4D16C700948FFF70F
:101FC00091FDBDE8704000F011B9098989B2FFF7B1
:101FD00037FDE0E78968FFF72DFEDCE724000020ED
:101FE00080360020543700200548017811B10121C6
:101FF0004170704703494FF08050086070470000FF
:102000002C00002004ED00E0F0B4154DAB1CEE7880
:102010004FEA0507D3E84F2FB24202D1BFF32F8F0B
:1020200011E0521CD4B2C3E8424F002AF2D100BFE3
:10203000D7E84F2F541CB44200D10024E4B2C7E8C3
:10204000434F002BF4D1EB78934205D905EBC20244
:10205000C2E90101F0BC7047F0BC0220FFF712BCDE
:1020600080360020104A10B5D368ABB113469B8A66
:1020700003E08CB12246A48A2344D4688B42F8D36F
:10208000C460D0600261C46804B12061591A8182C1
:10209000908A401A908210BD0024C460D060C91A92
:1020A00002619182848210BD6C37002030B50278C5
:1020B0000023022A03D0012A01D0032A00D10123E0
:1020C0008C7800E01046426812B19578A542F9D2AA
:1020D0004A6041601BB102B19160886030BD002050
:1020E000FBE7000003494A684260002282604860C2
:1020F000704700005437002010B5836804462BB9A0
:10210000607801280ED1084B03E09B6818780028FE
:10211000FBD0204600F026F82146BDE810401846C6
:10212000FFF7C4BF10BD000054370020806A016271
:102130007047806AC0E90812704710B5016900292C
:102140000ED0C268CA60C36800223BB18B8A848A01
:1021500023448B82C3681961C26000E08A820261F5
:1021600010BD0000816839B142684A6041680029A9
:1021700001D0806888607047054906E04A6882425D
:1021800002D140684860704711460029F6D1704777
:102190005437002010B5416881B1FFF7A3FC044615
:1021A000FFF7CBFF0120607001462046FFF7BEFF1E
:1021B0002146BDE810400348FFF778BF4188491C1D
:1021C000418010BD5437002006480068D0E90A104D
:1021D000814203D300680449884202D00120FFF7FE
:1021E00051BB704724000020A52E5AE20749022265
:1021F00048604270064A1278002A05D006C98A4211
:1022000002D0C078FFF732BA7047000024000020E7
:102210004000002070B5FFF701FA00200446204A74
:10222000204902E042F82040401C0B889842F9D334
:102230001D48342201881D48FFF7AFF91C4800886B
:1022400080B240F000421B4801681B48FFF7A5F927
:102250001A48082201881A480068FFF79EF9194DAC
:10226000FF20194AE870EC8400212846FFF752FC51
:10227000164804210170446015480170C46004616F
:102280008482144815490560022068701248047061
:1022900044700978C170BDE87040FFF76DBC000064
:1022A00004370020D4280008F82800080C02002079
:1022B000D8280008FC2800088803002020290008EE
:1022C0001000002020370020871800085437002015
:1022D0006C370020240000208036002004290008EC
:1022E0001B4810B5016841F47F01016000684FF0A0
:1022F0007F4101EA00201649C0431439B0FA80F04A
:102300000968C0F10800C1F30221814200D3481CD2
:102310000F49091F0B686FF08072824063F3170248
:102320000A60FFF7B1FA0B49002808600EDB00F1E4
:10233000E021FF2281F8002400F01F0201219140DA
:102340004009800000F1E020C0F8001110BD00003D
:1023500020ED00E0300000200C4810B5026801219B
:1023600051700068FFF7BEFEFFF7ECFA08480168FD
:10237000491C0160FFF70AFB00F072FA0548FFF7FD
:10238000B1FBBDE81040FFF731BF00002400002082
:102390003400002054370020002805D0810702D1E6
:1023A0000178002900D000207047000030B50B4CA8
:1023B0000023626805E095688D4204D813461268D0
:1023C000491B002AF7D10260816012B19568691A31
:1023D00091600BB1186030BD606030BD1C00002002
:1023E0002DE9F0411E46174680460D4611F0FF0FBD
:1023F00000D14D1C1848FFF75CFA041E16D0280ABD
:10240000E762E084E9B242462046E661FFF782FBDC
:1024100001251248124905E000EB850252F8042C10
:1024200032B16D1C0A889542F6D90020BDE8F081D2
:10243000002DFAD000EB850040F8044C0948E57007
:10244000007818B101212046FFF700F92046FFF778
:10245000D5FA2846EAE700000C02002004370020E5
:10246000D4280008400000202DE9F05F584DDFF827
:102470005891DFF8588129684FF0010A002618B1F9
:10248000CA78AB46824243D14E70FDF7B4FE29684C
:102490008862FFF799FE2868046A1FE06068C0B18F
:1024A0002046FFF71FFB07460021FFF73FFE384697
:1024B000FFF743FE87F801A039464648FFF7F6FDCF
:1024C000E168A4F802A0A760386AE0603C620C46AC
:1024D00004E0E0686680A660E6600446002CDDD17A
:1024E0002868C27808EB820141F8046CC16A3A4856
:1024F000FFF7CEFA2868C66299F8001011B10021E2
:10250000FFF7A4F835482968FFF7C2FA2E6056E0B5
:102510003349098888420CD808EB800858F8045CD5
:102520003DB12846FFF71EFE2846FFF706FE2C6A3F
:1025300022E0FF20BDE8F09F6068C0B12046FFF7B1
:10254000D1FA07460021FFF7F1FD3846FFF7F5FD08
:1025500087F801A039461F48FFF7A8FDE168A4F8F5
:1025600002A0A760386AE0603C620C4604E0E068C4
:102570006680A660E6600446002CDDD148F8046C55
:102580001548E96AFFF784FAEE6299F8000018B17D
:1025900000212846FFF75AF829461048FFF778FA35
:1025A0000C48DBF8001040688B7882789A4209D991
:1025B00081F801A00748DBF80010FFF777FD002045
:1025C000FFF71CFA0020B5E7400000200437002088
:1025D0002400002054370020880300200C02002033
:1025E000D428000870B51A4D80B11A4A128890425A
:1025F0001FD8194A02EB800050F8044CCCB1A170EE
:1026000084F824102868A04205D014E0286881705E
:10261000286880F82410114840688078884215D9CD
:102620000E482968FFF742FD296801204870002004
:102630000AE0FF2070BD2046FFF75EFD60780128AC
:1026400004D10648FFF74EFAFFF7D8F9002070BD15
:1026500024000020D428000804370020543700202C
:1026600002480068002800D0C0787047240000208D
:1026700010B5134C207860B91248400705D11248B4
:1026800001681048FFF76AFA08B1852010BDFFF70E
:10269000C1FD0E49FF2009688870207858B90021D3
:1026A0000B4800F041F80B49086000210A4800F08F
:1026B0006BF80A490860012020700020607010BD8E
:1026C0001C0000209833002000290008240000206E
:1026D000182900081800002008290008140000200C
:1026E00070B50F4D687808B1002070BD0D4C2068A2
:1026F00090F824100020FFF775FF2068C178FF29AB
:1027000003D1816A203181F30988616811B9606061
:1027100000202060FFF7E4FD01206870E4E700007E
:102720001C0000202400002010B5040005D0216802
:1027300019B1606808B102780AB1002010BD8900A3
:10274000103189B2FFF768FA606810BD3EB5040029
:102750000D464FF0800012D0217801290FD1284674
:10276000FFF73AFB0246204601A9FFF7DBFA0128F2
:1027700001D0102003E00DB1402000E00020DDE991
:10278000011203B030BD000070B50E46040029D020
:10279000206838B3606810F1030F23DB032821DCC5
:1027A000E16829B11048FFF791F805001AD000E060
:1027B00000256068E168001D40EA012133462A4691
:1027C0002068FFF70DFE40B1084901EB8000084981
:1027D00050F8040C826A516370BD1DB1294602484D
:1027E000FFF76CF9002070BD9833002004370020FB
:1027F0003518000810B5FFF733FF002804D003494F
:1028000001EB800050F8040C10BD000004370020DC
:1028100010B5FFF7C1FD18B1C18C19B1C46A02E04F
:10282000802010BD0024C078FFF71EFEFF2806D0D0
:102830001CB121460348FFF741F9002010BD81205B
:1028400010BD00009833002010B5FFF75FF920B1EC
:1028500041690A680169104610BD0020014610BD9B
:102860002DE9F041134E7468002C1CD0A068124F63
:10287000401E4FF00108A06012E0254624687460F5
:10288000002229463868FEF70EFF10B10420FEF73B
:10289000F9FF6879012808D085F80480002C02D05F
:1028A000A0680028E9D0BDE8F0812846E968FFF774
:1028B0007DFDF3E71C000020180000200000000050
:1028C00000000000010203040607080900000000E0
:1028D00001020304070000000008020105000100D6
:1028E000FFF9000001000000020001005200040096
:1028F000E803000000000000780100001030000034
:10290000E802000010000000591800080200000052
:1029100001000000C800000004000000EC010020DD
:10292000000000003917000800000000010000004E
:1029300000020000542900080000002044000000AC
:102940006C0100089829000844000020A43D000004
:10295000880100080024F4000100000010000000BD
:102960000000000000000000000000000000000067
:102970000000000000000000000000000000000057
:102980000000000000000000000000000000000047
:0829900000000000000000003F
:0400000508000131BD
:00000001FF
